{
  "_format": "hh-sol-artifact-1",
  "contractName": "Story",
  "sourceName": "contracts/Story.sol",
  "abi": [
    {
      "inputs": [],
      "stateMutability": "nonpayable",
      "type": "constructor"
    },
    {
      "anonymous": false,
      "inputs": [
        {
          "indexed": false,
          "internalType": "string",
          "name": "storyId",
          "type": "string"
        },
        {
          "indexed": false,
          "internalType": "address",
          "name": "authorId",
          "type": "address"
        }
      ],
      "name": "StoryAdded",
      "type": "event"
    },
    {
      "anonymous": false,
      "inputs": [
        {
          "indexed": false,
          "internalType": "string",
          "name": "storyId",
          "type": "string"
        },
        {
          "indexed": false,
          "internalType": "address",
          "name": "authorId",
          "type": "address"
        }
      ],
      "name": "StoryUpdated",
      "type": "event"
    },
    {
      "inputs": [
        {
          "internalType": "string",
          "name": "storyId",
          "type": "string"
        },
        {
          "internalType": "bytes32",
          "name": "storyContent",
          "type": "bytes32"
        },
        {
          "internalType": "address",
          "name": "authorId",
          "type": "address"
        }
      ],
      "name": "addStory",
      "outputs": [],
      "stateMutability": "nonpayable",
      "type": "function"
    },
    {
      "inputs": [
        {
          "internalType": "string",
          "name": "storyId",
          "type": "string"
        }
      ],
      "name": "getStory",
      "outputs": [
        {
          "components": [
            {
              "internalType": "string",
              "name": "storyId",
              "type": "string"
            },
            {
              "internalType": "bytes32",
              "name": "storyContent",
              "type": "bytes32"
            },
            {
              "internalType": "address",
              "name": "authorId",
              "type": "address"
            }
          ],
          "internalType": "struct Story.StoryObject",
          "name": "",
          "type": "tuple"
        }
      ],
      "stateMutability": "view",
      "type": "function"
    },
    {
      "inputs": [],
      "name": "owner",
      "outputs": [
        {
          "internalType": "address",
          "name": "",
          "type": "address"
        }
      ],
      "stateMutability": "view",
      "type": "function"
    },
    {
      "inputs": [
        {
          "internalType": "string",
          "name": "storyId",
          "type": "string"
        },
        {
          "internalType": "bytes32",
          "name": "storyContent",
          "type": "bytes32"
        },
        {
          "internalType": "address",
          "name": "authorId",
          "type": "address"
        }
      ],
      "name": "updateStory",
      "outputs": [],
      "stateMutability": "nonpayable",
      "type": "function"
    }
  ],
  "bytecode": "0x608060405234801561001057600080fd5b50336000806101000a81548173ffffffffffffffffffffffffffffffffffffffff021916908373ffffffffffffffffffffffffffffffffffffffff1602179055506111a2806100606000396000f3fe608060405234801561001057600080fd5b506004361061004c5760003560e01c8063250590c9146100515780635d82b46f1461006d5780636073991c146100895780638da5cb5b146100b9575b600080fd5b61006b600480360381019061006691906109ca565b6100d7565b005b610087600480360381019061008291906109ca565b6102e4565b005b6100a3600480360381019061009e9190610a39565b610654565b6040516100b09190610b6f565b60405180910390f35b6100c161077e565b6040516100ce9190610ba0565b60405180910390f35b6000801b6001846040516100eb9190610bf7565b9081526020016040518091039020600101541461013d576040517f08c379a000000000000000000000000000000000000000000000000000000000815260040161013490610c91565b60405180910390fd5b600073ffffffffffffffffffffffffffffffffffffffff166001846040516101659190610bf7565b908152602001604051809103902060020160009054906101000a900473ffffffffffffffffffffffffffffffffffffffff1673ffffffffffffffffffffffffffffffffffffffff16146101ed576040517f08c379a00000000000000000000000000000000000000000000000000000000081526004016101e490610c91565b60405180910390fd5b60405180606001604052808481526020018381526020018273ffffffffffffffffffffffffffffffffffffffff1681525060018460405161022e9190610bf7565b908152602001604051809103902060008201518160000190816102519190610ec7565b506020820151816001015560408201518160020160006101000a81548173ffffffffffffffffffffffffffffffffffffffff021916908373ffffffffffffffffffffffffffffffffffffffff1602179055509050507f4ca55089c712b8e7fa4a30f232f151521cda87a095a19d07c1d2522f22e9b49283826040516102d7929190610fd2565b60405180910390a1505050565b8281600073ffffffffffffffffffffffffffffffffffffffff1660018360405161030e9190610bf7565b908152602001604051809103902060020160009054906101000a900473ffffffffffffffffffffffffffffffffffffffff1673ffffffffffffffffffffffffffffffffffffffff1603610396576040517f08c379a000000000000000000000000000000000000000000000000000000000815260040161038d9061104e565b60405180910390fd5b6001826040516103a69190610bf7565b908152602001604051809103902060020160009054906101000a900473ffffffffffffffffffffffffffffffffffffffff1673ffffffffffffffffffffffffffffffffffffffff168173ffffffffffffffffffffffffffffffffffffffff1614610445576040517f08c379a000000000000000000000000000000000000000000000000000000000815260040161043c906110e0565b60405180910390fd5b6000801b6001866040516104599190610bf7565b908152602001604051809103902060010154036104ab576040517f08c379a00000000000000000000000000000000000000000000000000000000081526004016104a29061114c565b60405180910390fd5b600073ffffffffffffffffffffffffffffffffffffffff166001866040516104d39190610bf7565b908152602001604051809103902060020160009054906101000a900473ffffffffffffffffffffffffffffffffffffffff1673ffffffffffffffffffffffffffffffffffffffff160361055b576040517f08c379a00000000000000000000000000000000000000000000000000000000081526004016105529061104e565b60405180910390fd5b60405180606001604052808681526020018581526020018473ffffffffffffffffffffffffffffffffffffffff1681525060018660405161059c9190610bf7565b908152602001604051809103902060008201518160000190816105bf9190610ec7565b506020820151816001015560408201518160020160006101000a81548173ffffffffffffffffffffffffffffffffffffffff021916908373ffffffffffffffffffffffffffffffffffffffff1602179055509050507f52203cf64b0fc9a1a6ced34509e1c47e14271c5aa078e42bc107c03c7cf8ebd78584604051610645929190610fd2565b60405180910390a15050505050565b61065c6107a2565b60018260405161066c9190610bf7565b908152602001604051809103902060405180606001604052908160008201805461069590610ce0565b80601f01602080910402602001604051908101604052809291908181526020018280546106c190610ce0565b801561070e5780601f106106e35761010080835404028352916020019161070e565b820191906000526020600020905b8154815290600101906020018083116106f157829003601f168201915b50505050508152602001600182015481526020016002820160009054906101000a900473ffffffffffffffffffffffffffffffffffffffff1673ffffffffffffffffffffffffffffffffffffffff1673ffffffffffffffffffffffffffffffffffffffff16815250509050919050565b60008054906101000a900473ffffffffffffffffffffffffffffffffffffffff1681565b60405180606001604052806060815260200160008019168152602001600073ffffffffffffffffffffffffffffffffffffffff1681525090565b6000604051905090565b600080fd5b600080fd5b600080fd5b600080fd5b6000601f19601f8301169050919050565b7f4e487b7100000000000000000000000000000000000000000000000000000000600052604160045260246000fd5b610843826107fa565b810181811067ffffffffffffffff821117156108625761086161080b565b5b80604052505050565b60006108756107dc565b9050610881828261083a565b919050565b600067ffffffffffffffff8211156108a1576108a061080b565b5b6108aa826107fa565b9050602081019050919050565b82818337600083830152505050565b60006108d96108d484610886565b61086b565b9050828152602081018484840111156108f5576108f46107f5565b5b6109008482856108b7565b509392505050565b600082601f83011261091d5761091c6107f0565b5b813561092d8482602086016108c6565b91505092915050565b6000819050919050565b61094981610936565b811461095457600080fd5b50565b60008135905061096681610940565b92915050565b600073ffffffffffffffffffffffffffffffffffffffff82169050919050565b60006109978261096c565b9050919050565b6109a78161098c565b81146109b257600080fd5b50565b6000813590506109c48161099e565b92915050565b6000806000606084860312156109e3576109e26107e6565b5b600084013567ffffffffffffffff811115610a0157610a006107eb565b5b610a0d86828701610908565b9350506020610a1e86828701610957565b9250506040610a2f868287016109b5565b9150509250925092565b600060208284031215610a4f57610a4e6107e6565b5b600082013567ffffffffffffffff811115610a6d57610a6c6107eb565b5b610a7984828501610908565b91505092915050565b600081519050919050565b600082825260208201905092915050565b60005b83811015610abc578082015181840152602081019050610aa1565b60008484015250505050565b6000610ad382610a82565b610add8185610a8d565b9350610aed818560208601610a9e565b610af6816107fa565b840191505092915050565b610b0a81610936565b82525050565b610b198161098c565b82525050565b60006060830160008301518482036000860152610b3c8282610ac8565b9150506020830151610b516020860182610b01565b506040830151610b646040860182610b10565b508091505092915050565b60006020820190508181036000830152610b898184610b1f565b905092915050565b610b9a8161098c565b82525050565b6000602082019050610bb56000830184610b91565b92915050565b600081905092915050565b6000610bd182610a82565b610bdb8185610bbb565b9350610beb818560208601610a9e565b80840191505092915050565b6000610c038284610bc6565b915081905092915050565b600082825260208201905092915050565b7f53746f72792077697468207468652073616d652073746f7279496420616c726560008201527f616479206578697374732e000000000000000000000000000000000000000000602082015250565b6000610c7b602b83610c0e565b9150610c8682610c1f565b604082019050919050565b60006020820190508181036000830152610caa81610c6e565b9050919050565b7f4e487b7100000000000000000000000000000000000000000000000000000000600052602260045260246000fd5b60006002820490506001821680610cf857607f821691505b602082108103610d0b57610d0a610cb1565b5b50919050565b60008190508160005260206000209050919050565b60006020601f8301049050919050565b600082821b905092915050565b600060088302610d737fffffffffffffffffffffffffffffffffffffffffffffffffffffffffffffffff82610d36565b610d7d8683610d36565b95508019841693508086168417925050509392505050565b6000819050919050565b6000819050919050565b6000610dc4610dbf610dba84610d95565b610d9f565b610d95565b9050919050565b6000819050919050565b610dde83610da9565b610df2610dea82610dcb565b848454610d43565b825550505050565b600090565b610e07610dfa565b610e12818484610dd5565b505050565b5b81811015610e3657610e2b600082610dff565b600181019050610e18565b5050565b601f821115610e7b57610e4c81610d11565b610e5584610d26565b81016020851015610e64578190505b610e78610e7085610d26565b830182610e17565b50505b505050565b600082821c905092915050565b6000610e9e60001984600802610e80565b1980831691505092915050565b6000610eb78383610e8d565b9150826002028217905092915050565b610ed082610a82565b67ffffffffffffffff811115610ee957610ee861080b565b5b610ef38254610ce0565b610efe828285610e3a565b600060209050601f831160018114610f315760008415610f1f578287015190505b610f298582610eab565b865550610f91565b601f198416610f3f86610d11565b60005b82811015610f6757848901518255600182019150602085019450602081019050610f42565b86831015610f845784890151610f80601f891682610e8d565b8355505b6001600288020188555050505b505050505050565b6000610fa482610a82565b610fae8185610c0e565b9350610fbe818560208601610a9e565b610fc7816107fa565b840191505092915050565b60006040820190508181036000830152610fec8185610f99565b9050610ffb6020830184610b91565b9392505050565b7f53746f727920646f6573206e6f74206578697374000000000000000000000000600082015250565b6000611038601483610c0e565b915061104382611002565b602082019050919050565b600060208201905081810360008301526110678161102b565b9050919050565b7f43616c6c6572206973206e6f742074686520617574686f72206f66207468697360008201527f2073746f72792e00000000000000000000000000000000000000000000000000602082015250565b60006110ca602783610c0e565b91506110d58261106e565b604082019050919050565b600060208201905081810360008301526110f9816110bd565b9050919050565b7f53746f727920646f6573206e6f742065786973742e0000000000000000000000600082015250565b6000611136601583610c0e565b915061114182611100565b602082019050919050565b6000602082019050818103600083015261116581611129565b905091905056fea2646970667358221220bf1e096545c654042675ba28417c944029f9990d2ed94ae5b682cbfea340237a64736f6c63430008180033",
  "linkReferences": {},
  "deployedLinkReferences": {}
}